{
  "_format": "hh-sol-artifact-1",
  "contractName": "RockPaperScissors",
  "sourceName": "contracts/RockPaperScissors.sol",
  "abi": [
    {
      "inputs": [],
      "stateMutability": "nonpayable",
      "type": "constructor"
    },
    {
      "anonymous": false,
      "inputs": [
        {
          "components": [
            {
              "internalType": "uint256",
              "name": "id",
              "type": "uint256"
            },
            {
              "internalType": "address",
              "name": "player1",
              "type": "address"
            },
            {
              "internalType": "address",
              "name": "player2",
              "type": "address"
            },
            {
              "internalType": "uint8",
              "name": "move1",
              "type": "uint8"
            },
            {
              "internalType": "uint8",
              "name": "move2",
              "type": "uint8"
            },
            {
              "internalType": "uint256",
              "name": "bet",
              "type": "uint256"
            },
            {
              "internalType": "uint8",
              "name": "winner",
              "type": "uint8"
            },
            {
              "internalType": "bool",
              "name": "cancelled",
              "type": "bool"
            }
          ],
          "indexed": false,
          "internalType": "struct RockPaperScissors.Room",
          "name": "room",
          "type": "tuple"
        }
      ],
      "name": "CreateRoom",
      "type": "event"
    },
    {
      "anonymous": false,
      "inputs": [
        {
          "indexed": true,
          "internalType": "address",
          "name": "player",
          "type": "address"
        },
        {
          "indexed": false,
          "internalType": "int256",
          "name": "earnings",
          "type": "int256"
        }
      ],
      "name": "Earnings",
      "type": "event"
    },
    {
      "anonymous": false,
      "inputs": [
        {
          "components": [
            {
              "internalType": "uint256",
              "name": "id",
              "type": "uint256"
            },
            {
              "internalType": "address",
              "name": "player1",
              "type": "address"
            },
            {
              "internalType": "address",
              "name": "player2",
              "type": "address"
            },
            {
              "internalType": "uint8",
              "name": "move1",
              "type": "uint8"
            },
            {
              "internalType": "uint8",
              "name": "move2",
              "type": "uint8"
            },
            {
              "internalType": "uint256",
              "name": "bet",
              "type": "uint256"
            },
            {
              "internalType": "uint8",
              "name": "winner",
              "type": "uint8"
            },
            {
              "internalType": "bool",
              "name": "cancelled",
              "type": "bool"
            }
          ],
          "indexed": false,
          "internalType": "struct RockPaperScissors.Room",
          "name": "room",
          "type": "tuple"
        }
      ],
      "name": "UpdateRoom",
      "type": "event"
    },
    {
      "inputs": [
        {
          "internalType": "uint256",
          "name": "index",
          "type": "uint256"
        }
      ],
      "name": "cancelRoom",
      "outputs": [],
      "stateMutability": "nonpayable",
      "type": "function"
    },
    {
      "inputs": [],
      "name": "createRoom",
      "outputs": [],
      "stateMutability": "payable",
      "type": "function"
    },
    {
      "inputs": [
        {
          "internalType": "address",
          "name": "",
          "type": "address"
        }
      ],
      "name": "earnings",
      "outputs": [
        {
          "internalType": "int256",
          "name": "",
          "type": "int256"
        }
      ],
      "stateMutability": "view",
      "type": "function"
    },
    {
      "inputs": [],
      "name": "getEarnings",
      "outputs": [
        {
          "internalType": "int256",
          "name": "",
          "type": "int256"
        }
      ],
      "stateMutability": "view",
      "type": "function"
    },
    {
      "inputs": [
        {
          "internalType": "uint256",
          "name": "index",
          "type": "uint256"
        }
      ],
      "name": "getRoom",
      "outputs": [
        {
          "components": [
            {
              "internalType": "uint256",
              "name": "id",
              "type": "uint256"
            },
            {
              "internalType": "address",
              "name": "player1",
              "type": "address"
            },
            {
              "internalType": "address",
              "name": "player2",
              "type": "address"
            },
            {
              "internalType": "uint8",
              "name": "move1",
              "type": "uint8"
            },
            {
              "internalType": "uint8",
              "name": "move2",
              "type": "uint8"
            },
            {
              "internalType": "uint256",
              "name": "bet",
              "type": "uint256"
            },
            {
              "internalType": "uint8",
              "name": "winner",
              "type": "uint8"
            },
            {
              "internalType": "bool",
              "name": "cancelled",
              "type": "bool"
            }
          ],
          "internalType": "struct RockPaperScissors.Room",
          "name": "",
          "type": "tuple"
        }
      ],
      "stateMutability": "view",
      "type": "function"
    },
    {
      "inputs": [],
      "name": "getRooms",
      "outputs": [
        {
          "components": [
            {
              "internalType": "uint256",
              "name": "id",
              "type": "uint256"
            },
            {
              "internalType": "address",
              "name": "player1",
              "type": "address"
            },
            {
              "internalType": "address",
              "name": "player2",
              "type": "address"
            },
            {
              "internalType": "uint8",
              "name": "move1",
              "type": "uint8"
            },
            {
              "internalType": "uint8",
              "name": "move2",
              "type": "uint8"
            },
            {
              "internalType": "uint256",
              "name": "bet",
              "type": "uint256"
            },
            {
              "internalType": "uint8",
              "name": "winner",
              "type": "uint8"
            },
            {
              "internalType": "bool",
              "name": "cancelled",
              "type": "bool"
            }
          ],
          "internalType": "struct RockPaperScissors.Room[]",
          "name": "",
          "type": "tuple[]"
        }
      ],
      "stateMutability": "view",
      "type": "function"
    },
    {
      "inputs": [
        {
          "internalType": "uint256",
          "name": "index",
          "type": "uint256"
        }
      ],
      "name": "joinRoom",
      "outputs": [],
      "stateMutability": "payable",
      "type": "function"
    },
    {
      "inputs": [
        {
          "internalType": "uint256",
          "name": "index",
          "type": "uint256"
        },
        {
          "internalType": "uint8",
          "name": "move",
          "type": "uint8"
        }
      ],
      "name": "makeMove",
      "outputs": [],
      "stateMutability": "nonpayable",
      "type": "function"
    },
    {
      "inputs": [
        {
          "internalType": "uint256",
          "name": "",
          "type": "uint256"
        }
      ],
      "name": "rooms",
      "outputs": [
        {
          "internalType": "uint256",
          "name": "id",
          "type": "uint256"
        },
        {
          "internalType": "address",
          "name": "player1",
          "type": "address"
        },
        {
          "internalType": "address",
          "name": "player2",
          "type": "address"
        },
        {
          "internalType": "uint8",
          "name": "move1",
          "type": "uint8"
        },
        {
          "internalType": "uint8",
          "name": "move2",
          "type": "uint8"
        },
        {
          "internalType": "uint256",
          "name": "bet",
          "type": "uint256"
        },
        {
          "internalType": "uint8",
          "name": "winner",
          "type": "uint8"
        },
        {
          "internalType": "bool",
          "name": "cancelled",
          "type": "bool"
        }
      ],
      "stateMutability": "view",
      "type": "function"
    }
  ],
  "bytecode": "0x608060405234801561001057600080fd5b50612a89806100206000396000f3fe6080604052600436106100865760003560e01c80636d8a74cb116100595780636d8a74cb1461013f5780637fd6f7c41461017c57806390666232146101a55780639cfc4b45146101d0578063d08f6a6b146101ec57610086565b80631bae0ac81461008b5780632d172edf146100cf5780633be272aa146100f8578063543fd31314610102575b600080fd5b34801561009757600080fd5b506100b260048036038101906100ad9190611f78565b610217565b6040516100c69897969594939291906127d3565b60405180910390f35b3480156100db57600080fd5b506100f660048036038101906100f19190611f78565b6102e0565b005b610100610588565b005b34801561010e57600080fd5b5061012960048036038101906101249190611f4f565b6107e9565b6040516101369190612640565b60405180910390f35b34801561014b57600080fd5b5061016660048036038101906101619190611f78565b610801565b604051610173919061279b565b60405180910390f35b34801561018857600080fd5b506101a3600480360381019061019e9190611fa1565b610969565b005b3480156101b157600080fd5b506101ba610d76565b6040516101c79190612640565b60405180910390f35b6101ea60048036038101906101e59190611f78565b610dbd565b005b3480156101f857600080fd5b5061020161109a565b60405161020e919061261e565b60405180910390f35b6000818154811061022457fe5b90600052602060002090600502016000915090508060000154908060010160009054906101000a900473ffffffffffffffffffffffffffffffffffffffff16908060020160009054906101000a900473ffffffffffffffffffffffffffffffffffffffff16908060020160149054906101000a900460ff16908060020160159054906101000a900460ff16908060030154908060040160009054906101000a900460ff16908060040160019054906101000a900460ff16905088565b3373ffffffffffffffffffffffffffffffffffffffff166000828154811061030457fe5b906000526020600020906005020160010160009054906101000a900473ffffffffffffffffffffffffffffffffffffffff1673ffffffffffffffffffffffffffffffffffffffff161461038c576040517f08c379a00000000000000000000000000000000000000000000000000000000081526004016103839061273b565b60405180910390fd5b600073ffffffffffffffffffffffffffffffffffffffff16600082815481106103b157fe5b906000526020600020906005020160020160009054906101000a900473ffffffffffffffffffffffffffffffffffffffff1673ffffffffffffffffffffffffffffffffffffffff1614610439576040517f08c379a00000000000000000000000000000000000000000000000000000000081526004016104309061277b565b60405180910390fd5b600015156000828154811061044a57fe5b906000526020600020906005020160040160019054906101000a900460ff161515146104ab576040517f08c379a00000000000000000000000000000000000000000000000000000000081526004016104a29061275b565b60405180910390fd5b6001600082815481106104ba57fe5b906000526020600020906005020160040160016101000a81548160ff021916908315150217905550600081815481106104ef57fe5b906000526020600020906005020160010160009054906101000a900473ffffffffffffffffffffffffffffffffffffffff1673ffffffffffffffffffffffffffffffffffffffff166108fc6000838154811061054757fe5b9060005260206000209060050201600301549081150290604051600060405180830381858888f19350505050158015610584573d6000803e3d6000fd5b5050565b610590611e94565b60405180610100016040528060008152602001600073ffffffffffffffffffffffffffffffffffffffff168152602001600073ffffffffffffffffffffffffffffffffffffffff168152602001600060ff168152602001600060ff16815260200160008152602001600060ff16815260200160001515815250905033816020019073ffffffffffffffffffffffffffffffffffffffff16908173ffffffffffffffffffffffffffffffffffffffff1681525050348160a001818152505060008054905081600001818152505060008190806001815401808255809150506001900390600052602060002090600502016000909190919091506000820151816000015560208201518160010160006101000a81548173ffffffffffffffffffffffffffffffffffffffff021916908373ffffffffffffffffffffffffffffffffffffffff16021790555060408201518160020160006101000a81548173ffffffffffffffffffffffffffffffffffffffff021916908373ffffffffffffffffffffffffffffffffffffffff16021790555060608201518160020160146101000a81548160ff021916908360ff16021790555060808201518160020160156101000a81548160ff021916908360ff16021790555060a0820151816003015560c08201518160040160006101000a81548160ff021916908360ff16021790555060e08201518160040160016101000a81548160ff02191690831515021790555050507f21cb1010b9194159d0cf32559eabbfc963e62b666a994a709e176a6b67f50ff7816040516107de919061279b565b60405180910390a150565b60016020528060005260406000206000915090505481565b610809611e94565b6000828154811061081657fe5b906000526020600020906005020160405180610100016040529081600082015481526020016001820160009054906101000a900473ffffffffffffffffffffffffffffffffffffffff1673ffffffffffffffffffffffffffffffffffffffff1673ffffffffffffffffffffffffffffffffffffffff1681526020016002820160009054906101000a900473ffffffffffffffffffffffffffffffffffffffff1673ffffffffffffffffffffffffffffffffffffffff1673ffffffffffffffffffffffffffffffffffffffff1681526020016002820160149054906101000a900460ff1660ff1660ff1681526020016002820160159054906101000a900460ff1660ff1660ff168152602001600382015481526020016004820160009054906101000a900460ff1660ff1660ff1681526020016004820160019054906101000a900460ff1615151515815250509050919050565b600015156000838154811061097a57fe5b906000526020600020906005020160040160019054906101000a900460ff161515146109db576040517f08c379a00000000000000000000000000000000000000000000000000000000081526004016109d29061269b565b60405180910390fd5b60008160ff161180156109f1575060048160ff16105b610a30576040517f08c379a0000000000000000000000000000000000000000000000000000000008152600401610a279061265b565b60405180910390fd5b3373ffffffffffffffffffffffffffffffffffffffff1660008381548110610a5457fe5b906000526020600020906005020160010160009054906101000a900473ffffffffffffffffffffffffffffffffffffffff1673ffffffffffffffffffffffffffffffffffffffff161480610b1157503373ffffffffffffffffffffffffffffffffffffffff1660008381548110610ac757fe5b906000526020600020906005020160020160009054906101000a900473ffffffffffffffffffffffffffffffffffffffff1673ffffffffffffffffffffffffffffffffffffffff16145b610b50576040517f08c379a0000000000000000000000000000000000000000000000000000000008152600401610b479061271b565b60405180910390fd5b6000808381548110610b5e57fe5b906000526020600020906005020160040160009054906101000a900460ff1660ff1614610bc0576040517f08c379a0000000000000000000000000000000000000000000000000000000008152600401610bb7906126fb565b60405180910390fd5b3373ffffffffffffffffffffffffffffffffffffffff1660008381548110610be457fe5b906000526020600020906005020160010160009054906101000a900473ffffffffffffffffffffffffffffffffffffffff1673ffffffffffffffffffffffffffffffffffffffff161415610c6e578060008381548110610c4057fe5b906000526020600020906005020160020160146101000a81548160ff021916908360ff160217905550610ca6565b8060008381548110610c7c57fe5b906000526020600020906005020160020160156101000a81548160ff021916908360ff1602179055505b6000808381548110610cb457fe5b906000526020600020906005020160020160149054906101000a900460ff1660ff1614158015610d1257506000808381548110610ced57fe5b906000526020600020906005020160020160159054906101000a900460ff1660ff1614155b15610d2157610d208261122c565b5b7f4c2b743b7b32ab218a86d89b67b132f7574124ba9b4b40a3b14de5ebd2e00dca60008381548110610d4f57fe5b9060005260206000209060050201604051610d6a91906127b7565b60405180910390a15050565b6000600160003373ffffffffffffffffffffffffffffffffffffffff1673ffffffffffffffffffffffffffffffffffffffff16815260200190815260200160002054905090565b6000151560008281548110610dce57fe5b906000526020600020906005020160040160019054906101000a900460ff16151514610e2f576040517f08c379a0000000000000000000000000000000000000000000000000000000008152600401610e269061269b565b60405180910390fd5b3373ffffffffffffffffffffffffffffffffffffffff1660008281548110610e5357fe5b906000526020600020906005020160010160009054906101000a900473ffffffffffffffffffffffffffffffffffffffff1673ffffffffffffffffffffffffffffffffffffffff161415610edc576040517f08c379a0000000000000000000000000000000000000000000000000000000008152600401610ed3906126db565b60405180910390fd5b600073ffffffffffffffffffffffffffffffffffffffff1660008281548110610f0157fe5b906000526020600020906005020160020160009054906101000a900473ffffffffffffffffffffffffffffffffffffffff1673ffffffffffffffffffffffffffffffffffffffff1614610f89576040517f08c379a0000000000000000000000000000000000000000000000000000000008152600401610f809061267b565b60405180910390fd5b60008181548110610f9657fe5b9060005260206000209060050201600301543414610fe9576040517f08c379a0000000000000000000000000000000000000000000000000000000008152600401610fe0906126bb565b60405180910390fd5b3360008281548110610ff757fe5b906000526020600020906005020160020160006101000a81548173ffffffffffffffffffffffffffffffffffffffff021916908373ffffffffffffffffffffffffffffffffffffffff1602179055507f4c2b743b7b32ab218a86d89b67b132f7574124ba9b4b40a3b14de5ebd2e00dca6000828154811061107457fe5b906000526020600020906005020160405161108f91906127b7565b60405180910390a150565b60606000805480602002602001604051908101604052809291908181526020016000905b82821015611223578382906000526020600020906005020160405180610100016040529081600082015481526020016001820160009054906101000a900473ffffffffffffffffffffffffffffffffffffffff1673ffffffffffffffffffffffffffffffffffffffff1673ffffffffffffffffffffffffffffffffffffffff1681526020016002820160009054906101000a900473ffffffffffffffffffffffffffffffffffffffff1673ffffffffffffffffffffffffffffffffffffffff1673ffffffffffffffffffffffffffffffffffffffff1681526020016002820160149054906101000a900460ff1660ff1660ff1681526020016002820160159054906101000a900460ff1660ff1660ff168152602001600382015481526020016004820160009054906101000a900460ff1660ff1660ff1681526020016004820160019054906101000a900460ff161515151581525050815260200190600101906110be565b50505050905090565b6000818154811061123957fe5b906000526020600020906005020160020160159054906101000a900460ff1660ff166000828154811061126857fe5b906000526020600020906005020160020160149054906101000a900460ff1660ff16141561130357600080828154811061129e57fe5b906000526020600020906005020160020160146101000a81548160ff021916908360ff16021790555060008082815481106112d557fe5b906000526020600020906005020160020160156101000a81548160ff021916908360ff160217905550611e91565b600160ff166000828154811061131557fe5b906000526020600020906005020160020160149054906101000a900460ff1660ff161480156113755750600360ff166000828154811061135157fe5b906000526020600020906005020160020160159054906101000a900460ff1660ff16145b806113ee5750600260ff166000828154811061138d57fe5b906000526020600020906005020160020160149054906101000a900460ff1660ff161480156113ed5750600160ff16600082815481106113c957fe5b906000526020600020906005020160020160159054906101000a900460ff1660ff16145b5b806114675750600360ff166000828154811061140657fe5b906000526020600020906005020160020160149054906101000a900460ff1660ff161480156114665750600260ff166000828154811061144257fe5b906000526020600020906005020160020160159054906101000a900460ff1660ff16145b5b15611980576000818154811061147957fe5b906000526020600020906005020160010160009054906101000a900473ffffffffffffffffffffffffffffffffffffffff1673ffffffffffffffffffffffffffffffffffffffff166108fc6002600084815481106114d357fe5b906000526020600020906005020160030154029081150290604051600060405180830381858888f19350505050158015611511573d6000803e3d6000fd5b5060016000828154811061152157fe5b906000526020600020906005020160040160006101000a81548160ff021916908360ff160217905550600080828154811061155857fe5b9060005260206000209060050201600301549050806001600080858154811061157d57fe5b906000526020600020906005020160010160009054906101000a900473ffffffffffffffffffffffffffffffffffffffff1673ffffffffffffffffffffffffffffffffffffffff1673ffffffffffffffffffffffffffffffffffffffff1681526020019081526020016000205401600160008085815481106115fb57fe5b906000526020600020906005020160010160009054906101000a900473ffffffffffffffffffffffffffffffffffffffff1673ffffffffffffffffffffffffffffffffffffffff1673ffffffffffffffffffffffffffffffffffffffff16815260200190815260200160002081905550806001600080858154811061167c57fe5b906000526020600020906005020160020160009054906101000a900473ffffffffffffffffffffffffffffffffffffffff1673ffffffffffffffffffffffffffffffffffffffff1673ffffffffffffffffffffffffffffffffffffffff1681526020019081526020016000205403600160008085815481106116fa57fe5b906000526020600020906005020160020160009054906101000a900473ffffffffffffffffffffffffffffffffffffffff1673ffffffffffffffffffffffffffffffffffffffff1673ffffffffffffffffffffffffffffffffffffffff168152602001908152602001600020819055506000828154811061177757fe5b906000526020600020906005020160010160009054906101000a900473ffffffffffffffffffffffffffffffffffffffff1673ffffffffffffffffffffffffffffffffffffffff167fa2803225547ae956ffe38898a8aa051932913059addccd4690299e1f5f9e2bf7600160008086815481106117f057fe5b906000526020600020906005020160010160009054906101000a900473ffffffffffffffffffffffffffffffffffffffff1673ffffffffffffffffffffffffffffffffffffffff1673ffffffffffffffffffffffffffffffffffffffff1681526020019081526020016000205460405161186a9190612640565b60405180910390a26000828154811061187f57fe5b906000526020600020906005020160020160009054906101000a900473ffffffffffffffffffffffffffffffffffffffff1673ffffffffffffffffffffffffffffffffffffffff167fa2803225547ae956ffe38898a8aa051932913059addccd4690299e1f5f9e2bf7600160008086815481106118f857fe5b906000526020600020906005020160020160009054906101000a900473ffffffffffffffffffffffffffffffffffffffff1673ffffffffffffffffffffffffffffffffffffffff1673ffffffffffffffffffffffffffffffffffffffff168152602001908152602001600020546040516119729190612640565b60405180910390a250611e90565b6000818154811061198d57fe5b906000526020600020906005020160020160009054906101000a900473ffffffffffffffffffffffffffffffffffffffff1673ffffffffffffffffffffffffffffffffffffffff166108fc6002600084815481106119e757fe5b906000526020600020906005020160030154029081150290604051600060405180830381858888f19350505050158015611a25573d6000803e3d6000fd5b50600260008281548110611a3557fe5b906000526020600020906005020160040160006101000a81548160ff021916908360ff1602179055506000808281548110611a6c57fe5b90600052602060002090600502016003015490508060016000808581548110611a9157fe5b906000526020600020906005020160010160009054906101000a900473ffffffffffffffffffffffffffffffffffffffff1673ffffffffffffffffffffffffffffffffffffffff1673ffffffffffffffffffffffffffffffffffffffff168152602001908152602001600020540360016000808581548110611b0f57fe5b906000526020600020906005020160010160009054906101000a900473ffffffffffffffffffffffffffffffffffffffff1673ffffffffffffffffffffffffffffffffffffffff1673ffffffffffffffffffffffffffffffffffffffff168152602001908152602001600020819055508060016000808581548110611b9057fe5b906000526020600020906005020160020160009054906101000a900473ffffffffffffffffffffffffffffffffffffffff1673ffffffffffffffffffffffffffffffffffffffff1673ffffffffffffffffffffffffffffffffffffffff168152602001908152602001600020540160016000808581548110611c0e57fe5b906000526020600020906005020160020160009054906101000a900473ffffffffffffffffffffffffffffffffffffffff1673ffffffffffffffffffffffffffffffffffffffff1673ffffffffffffffffffffffffffffffffffffffff1681526020019081526020016000208190555060008281548110611c8b57fe5b906000526020600020906005020160010160009054906101000a900473ffffffffffffffffffffffffffffffffffffffff1673ffffffffffffffffffffffffffffffffffffffff167fa2803225547ae956ffe38898a8aa051932913059addccd4690299e1f5f9e2bf760016000808681548110611d0457fe5b906000526020600020906005020160010160009054906101000a900473ffffffffffffffffffffffffffffffffffffffff1673ffffffffffffffffffffffffffffffffffffffff1673ffffffffffffffffffffffffffffffffffffffff16815260200190815260200160002054604051611d7e9190612640565b60405180910390a260008281548110611d9357fe5b906000526020600020906005020160020160009054906101000a900473ffffffffffffffffffffffffffffffffffffffff1673ffffffffffffffffffffffffffffffffffffffff167fa2803225547ae956ffe38898a8aa051932913059addccd4690299e1f5f9e2bf760016000808681548110611e0c57fe5b906000526020600020906005020160020160009054906101000a900473ffffffffffffffffffffffffffffffffffffffff1673ffffffffffffffffffffffffffffffffffffffff1673ffffffffffffffffffffffffffffffffffffffff16815260200190815260200160002054604051611e869190612640565b60405180910390a2505b5b50565b60405180610100016040528060008152602001600073ffffffffffffffffffffffffffffffffffffffff168152602001600073ffffffffffffffffffffffffffffffffffffffff168152602001600060ff168152602001600060ff16815260200160008152602001600060ff1681526020016000151581525090565b600081359050611f1f81612a0e565b92915050565b600081359050611f3481612a25565b92915050565b600081359050611f4981612a3c565b92915050565b600060208284031215611f6157600080fd5b6000611f6f84828501611f10565b91505092915050565b600060208284031215611f8a57600080fd5b6000611f9884828501611f25565b91505092915050565b60008060408385031215611fb457600080fd5b6000611fc285828601611f25565b9250506020611fd385828601611f3a565b9150509250929050565b6000611fe983836123b7565b6101008301905092915050565b611fff816128df565b82525050565b61200e816128df565b82525050565b600061201f82612861565b6120298185612879565b935061203483612851565b8060005b8381101561206557815161204c8882611fdd565b97506120578361286c565b925050600181019050612038565b5085935050505092915050565b61207b816128f1565b82525050565b61208a816128f1565b82525050565b612099816128fd565b82525050565b60006120ac60478361288a565b91507f596f75206e65656420746f206d616b652061206d6f7665206265747765656e2060008301527f3120616e6420332e20313a20526f636b2c20323a2050617065722c20333a205360208301527f636973736f7273000000000000000000000000000000000000000000000000006040830152606082019050919050565b600061213860218361288a565b91507f54686520726f6f6d2069732066756c6c2c20796f752063616e2774206a6f696e60008301527f2e000000000000000000000000000000000000000000000000000000000000006020830152604082019050919050565b600061219e60158361288a565b91507f5468652067616d652069732063616e63656c6c656400000000000000000000006000830152602082019050919050565b60006121de60298361288a565b91507f596f75206e65656420746f206d61746368207468652062657420616d6f756e7460008301527f20746f206a6f696e2e00000000000000000000000000000000000000000000006020830152604082019050919050565b6000612244601d8361288a565b91507f596f752061726520616c726561647920696e207468697320726f6f6d2e0000006000830152602082019050919050565b6000612284601e8361288a565b91507f546869732067616d6520697320616c726561647920636f6d706c6574652e00006000830152602082019050919050565b60006122c460198361288a565b91507f596f7520617265206e6f7420696e207468697320726f6f6d2e000000000000006000830152602082019050919050565b6000612304601f8361288a565b91507f54686973206973206e6f7420796f75722067616d6520746f2063616e63656c006000830152602082019050919050565b6000612344601d8361288a565b91507f5468652067616d6520697320616c72656164792063616e63656c6c65640000006000830152602082019050919050565b600061238460208361288a565b91507f596f752063616e206e6f742063616e63656c20617420746869732073746167656000830152602082019050919050565b610100820160008201516123ce60008501826125e2565b5060208201516123e16020850182611ff6565b5060408201516123f46040850182611ff6565b5060608201516124076060850182612600565b50608082015161241a6080850182612600565b5060a082015161242d60a08501826125e2565b5060c082015161244060c0850182612600565b5060e082015161245360e0850182612072565b50505050565b6101008201600082015161247060008501826125e2565b5060208201516124836020850182611ff6565b5060408201516124966040850182611ff6565b5060608201516124a96060850182612600565b5060808201516124bc6080850182612600565b5060a08201516124cf60a08501826125e2565b5060c08201516124e260c0850182612600565b5060e08201516124f560e0850182612072565b50505050565b6101008201600080830154905061251181612958565b61251e60008601826125e2565b506001830154905061252f8161293e565b61253c6020860182611ff6565b506002830154905061254d8161293e565b61255a6040860182611ff6565b50612564816129a6565b6125716060860182612600565b5061257b816129c0565b6125886080860182612600565b506003830154905061259981612958565b6125a660a08601826125e2565b50600483015490506125b781612972565b6125c460c0860182612600565b506125ce8161298c565b6125db60e0860182612072565b5050505050565b6125eb81612927565b82525050565b6125fa81612927565b82525050565b61260981612931565b82525050565b61261881612931565b82525050565b600060208201905081810360008301526126388184612014565b905092915050565b60006020820190506126556000830184612090565b92915050565b600060208201905081810360008301526126748161209f565b9050919050565b600060208201905081810360008301526126948161212b565b9050919050565b600060208201905081810360008301526126b481612191565b9050919050565b600060208201905081810360008301526126d4816121d1565b9050919050565b600060208201905081810360008301526126f481612237565b9050919050565b6000602082019050818103600083015261271481612277565b9050919050565b60006020820190508181036000830152612734816122b7565b9050919050565b60006020820190508181036000830152612754816122f7565b9050919050565b6000602082019050818103600083015261277481612337565b9050919050565b6000602082019050818103600083015261279481612377565b9050919050565b6000610100820190506127b16000830184612459565b92915050565b6000610100820190506127cd60008301846124fb565b92915050565b6000610100820190506127e9600083018b6125f1565b6127f6602083018a612005565b6128036040830189612005565b612810606083018861260f565b61281d608083018761260f565b61282a60a08301866125f1565b61283760c083018561260f565b61284460e0830184612081565b9998505050505050505050565b6000819050602082019050919050565b600081519050919050565b6000602082019050919050565b600082825260208201905092915050565b600082825260208201905092915050565b600073ffffffffffffffffffffffffffffffffffffffff82169050919050565b600060ff82169050919050565b6000819050919050565b600060ff82169050919050565b60006128ea82612907565b9050919050565b60008115159050919050565b6000819050919050565b600073ffffffffffffffffffffffffffffffffffffffff82169050919050565b6000819050919050565b600060ff82169050919050565b600061295161294c836129da565b61289b565b9050919050565b600061296b612966836129da565b6128c8565b9050919050565b6000612985612980836129da565b6128d2565b9050919050565b600061299f61299a83612a01565b6128bb565b9050919050565b60006129b96129b4836129e7565b6128d2565b9050919050565b60006129d36129ce836129f4565b6128d2565b9050919050565b60008160001c9050919050565b60008160a01c9050919050565b60008160a81c9050919050565b60008160081c9050919050565b612a17816128df565b8114612a2257600080fd5b50565b612a2e81612927565b8114612a3957600080fd5b50565b612a4581612931565b8114612a5057600080fd5b5056fea2646970667358221220847d97abf5f186f772a7fc2829f94e348af2c47ed7ad63ca822ba824cce6626764736f6c63430007030033",
  "linkReferences": {},
  "deployedLinkReferences": {}
}